:020000040800F2
:1000000000040020C1010008911D0008911D000896
:1000100051150008911D0008911D0008911D000850
:10002000911D0008911D0008911D0008613B00080A
:10003000911D0008911D0008911D0008B185000860
:10004000911D000811630008A1640008F164000814
:10005000911D0008911D000851600008A160000872
:10006000F16000084161000891610008E156000854
:100070003157000881570008D1570008215800085F
:1000800071580008C1580008C15E00089166000858
:1000900001670008B167000861680008E1610008B5
:1000A000911D0008911D000811800008911D000895
:1000B00071810008B1810008F181000861740008B5
:1000C000A1750008911D0008911D0008911D0008F0
:1000D000911D0008911D0008911D000871860008FF
:1000E0007162000861630008B1630008911D000897
:1000F000911D000851800008911D00081159000849
:10010000911D0008F169000831820008911D000866
:10011000911D0008911D0008D17F0008911D000865
:1001200061590008B1590008015A0008515A0008E5
:10013000A15A0008911D000801640008911D0008E3
:10014000911D0008911D0008911D0008117C0008F8
:10015000F15A0008415B0008915B0008911D0008FE
:10016000911D0008911D0008911D0008911D0008B7
:1001700051640008911D000801130008911D00083A
:10018000911D0008911D0008911D0008911D000897
:10019000911D0008911D0008911D0008911D000887
:1001A000911D0008911D0008911D0008911D000877
:1001B000911D0008911D0008911D0008911D000867
:1001C00072B62E4880F3098840F20000CCF200009D
:1001D0004EF63471CEF20001086040F20000C0F229
:1001E000F0004EF68851CEF2000108604FF000009A
:1001F000E1EE100A4EF63C71CEF2000108600620D6
:1002000080F31488BFF36F8F08F07AFB4FF05530FE
:100210001B491C4A91423CBF41F8040BFAE71A49BA
:10022000164A91423CBF41F8040BFAE71749184AB5
:10023000184B9A423EBF51F8040B42F8040BF8E702
:1002400000201549154A91423CBF41F8040BFAE7DA
:1002500001F086FD124C134DAC4203DA54F8041B36
:100260008847F9E700F0D4FF0F4C104DAC4203DA99
:1002700054F8041B8847F9E701F082BD000800200C
:1002800000000020000400200004002078CF0008B7
:1002900000080020CC110020D0110020E82400200C
:1002A000C0010008C0010008C0010008C00100082A
:1002B0002DE9F04F2DED108AC1F80CD0D0F80CD0FC
:1002C000BDEC108ABDE8F08F01F0A2FE02F038FE0E
:1002D000002383F311882846A047002002F000FC89
:1002E00002F016FE01F074FE02F06AFA01F090FED0
:1002F00002F026FE00DFFEE7000000000000000024
:1003000081F0004102E000BF83F0004330B54FEAC6
:1003100041044FEA430594EA050F08BF90EA020F33
:100320001FBF54EA000C55EA020C7FEA645C7FEAC6
:10033000655C00F0E2804FEA5454D4EB5555B8BFE9
:100340006D420CDD2C4480EA020281EA030382EA5A
:10035000000083EA010180EA020281EA0303362DEC
:1003600088BF30BD11F0004F4FEA01314FF4801CBF
:100370004CEA113102D0404261EB410113F0004FD1
:100380004FEA03334CEA133302D0524263EB430388
:1003900094EA050F00F0A780A4F10104D5F1200E26
:1003A0000DDB02FA0EFC22FA05F2801841F1000181
:1003B00003FA0EF2801843FA05F359410EE0A5F155
:1003C00020050EF1200E012A03FA0EFC28BF4CF086
:1003D000020C43FA05F3C01851EBE37101F000453C
:1003E00007D54FF0000EDCF1000C7EEB00006EEB49
:1003F0000101B1F5801F1BD3B1F5001F0CD34908D3
:100400005FEA30004FEA3C0C04F101044FEA445229
:1004100012F5800F80F09A80BCF1004F08BF5FEAB0
:10042000500C50F1000041EB045141EA050130BD90
:100430005FEA4C0C404141EB010111F4801FA4F133
:100440000104E9D191F0000F04BF01460020B1FA88
:1004500081F308BF2033A3F10B03B3F120020CDAC0
:100460000C3208DD02F1140CC2F10C0201FA0CF09E
:1004700021FA02F10CE002F11402D8BFC2F1200C03
:1004800001FA02F120FA0CFCDCBF41EA0C019040B9
:10049000E41AA2BF01EB0451294330BD6FEA040402
:1004A0001F3C1CDA0C340EDC04F11404C4F12002ED
:1004B00020FA04F001FA02F340EA030021FA04F3FF
:1004C00045EA030130BDC4F10C04C4F1200220FA56
:1004D00002F001FA04F340EA0300294630BD21FA94
:1004E00004F0294630BD94F0000F83F4801306BF5A
:1004F00081F480110134013D4EE77FEA645C18BF4E
:100500007FEA655C29D094EA050F08BF90EA020FE4
:1005100005D054EA000C04BF1946104630BD91EADC
:10052000030F1EBF0021002030BD5FEA545C05D1DF
:100530004000494128BF41F0004130BD14F580041E
:100540003CBF01F5801130BD01F0004545F0FE4192
:1005500041F470014FF0000030BD7FEA645C1ABFC7
:10056000194610467FEA655C1CBF0B46024650EAFE
:10057000013406BF52EA033591EA030F41F400212A
:1005800030BD00BF90F0000F04BF0021704730B5B0
:100590004FF4806404F132044FF000054FF0000185
:1005A00050E700BF90F0000F04BF0021704730B546
:1005B0004FF4806404F1320410F0004548BF40421B
:1005C0004FF000013EE700BF42004FEAE2014FEA70
:1005D00031014FEA02701FBF12F07F4393F07F4F4B
:1005E00081F06051704732F07F4208BF704793F04E
:1005F0007F4F04BF41F40021704730B54FF4607461
:1006000001F0004521F000411CE700BF50EA010263
:1006100008BF704730B54FF000050AE050EA01020C
:1006200008BF704730B511F0004502D5404261EB7C
:1006300041014FF4806404F132045FEA915C3FF4BD
:10064000D8AE4FF003025FEADC0C18BF03325FEA5A
:10065000DC0C18BF033202EBDC02C2F1200300FA0B
:1006600003FC20FA02F001FA03FE40EA0E0021FA30
:1006700002F11444BDE600BF0000000000000000CD
:1006800070B54FF0FF0C4CF4E06C1CEA11541DBF28
:100690001CEA135594EA0C0F95EA0C0F00F0DEF8F3
:1006A0002C4481EA030621EA4C5123EA4C5350EAD8
:1006B000013518BF52EA033541F4801143F4801329
:1006C00038D0A0FB02CE4FF00005E1FB02E506F0BA
:1006D0000042E0FB03E54FF00006E1FB03569CF00F
:1006E000000F18BF4EF0010EA4F1FF04B6F5007F15
:1006F00064F5407404D25FEA4E0E6D4146EB060687
:1007000042EAC62141EA55514FEAC52040EA5E500F
:100710004FEACE2EB4F1FD0C88BFBCF5E06F1ED8B9
:10072000BEF1004F08BF5FEA500E50F1000041EBF0
:10073000045170BD06F0004646EA010140EA02009D
:1007400081EA0301B4EB5C04C2BFD4EB0C0541EABF
:10075000045170BD41F480114FF0000E013C00F3D4
:10076000AB8014F1360FDEBF002001F0004170BDF8
:10077000C4F10004203C35DA0C341BDC04F1140411
:10078000C4F1200500FA05F320FA04F001FA05F29D
:1007900040EA020001F0004221F0004110EBD3706A
:1007A00021FA04F642EB06015EEA430E08BF20EA96
:1007B000D37070BDC4F10C04C4F1200500FA04F339
:1007C00020FA05F001FA04F240EA020001F00041CB
:1007D00010EBD37041F100015EEA430E08BF20EA3E
:1007E000D37070BDC4F1200500FA05F24EEA020E86
:1007F00020FA04F301FA05F243EA020321FA04F0B5
:1008000001F0004121FA04F220EA020000EBD3706B
:100810005EEA430E08BF20EAD37070BD94F0000F6B
:100820000FD101F00046400041EB010111F4801F9F
:1008300008BF013CF7D041EA060195F0000F18BF50
:10084000704703F00046520043EB030313F4801F8C
:1008500008BF013DF7D043EA0603704794EA0C0F46
:100860000CEA135518BF95EA0C0F0CD050EA41065C
:1008700018BF52EA4306D1D181EA030101F00041D9
:100880004FF0000070BD50EA410606BF1046194601
:1008900052EA430619D094EA0C0F02D150EA01360D
:1008A00013D195EA0C0F05D152EA03361CBF10464E
:1008B00019460AD181EA030101F0004141F0FE41ED
:1008C00041F470014FF0000070BD41F0FE4141F471
:1008D000780170BD70B54FF0FF0C4CF4E06C1CEA71
:1008E00011541DBF1CEA135594EA0C0F95EA0C0F26
:1008F00000F0A7F8A4EB050481EA030E52EA0335E1
:100900004FEA013100F088804FEA03334FF0805501
:1009100045EA131343EA12634FEA022245EA11152E
:1009200045EA10654FEA00260EF000419D4208BFDF
:10093000964244F1FD0404F5407402D25B084FEA8C
:100940003202B61A65EB03055B084FEA32024FF438
:1009500080104FF4002CB6EB020E75EB030E22BF95
:10096000B61A754640EA0C005B084FEA3202B6EB55
:10097000020E75EB030E22BFB61A754640EA5C0004
:100980005B084FEA3202B6EB020E75EB030E22BF94
:10099000B61A754640EA9C005B084FEA3202B6EB95
:1009A000020E75EB030E22BFB61A754640EADC0054
:1009B00055EA060E18D04FEA051545EA16754FEAB6
:1009C00006164FEAC30343EA52734FEAC2025FEAD4
:1009D0001C1CC0D111F4801F0BD141EA00014FF063
:1009E00000004FF0004CB6E711F4801F04BF014334
:1009F0000020B4F1FD0C88BFBCF5E06F3FF6AFAE50
:100A0000B5EB030C04BFB6EB020C5FEA500C50F1DF
:100A1000000041EB045170BD0EF0004E4EEA113162
:100A200014EB5C04C2BFD4EB0C0541EA045170BD69
:100A300041F480114FF0000E013C90E645EA060EAD
:100A40008DE60CEA135594EA0C0F08BF95EA0C0FDB
:100A50003FF43BAF94EA0C0F0AD150EA01347FF423
:100A600034AF95EA0C0F7FF425AF104619462CE7FA
:100A700095EA0C0F06D152EA03353FF4FDAE10465D
:100A8000194622E750EA410618BF52EA43067FF4AE
:100A9000C5AE50EA41047FF40DAF52EA43057FF43E
:100AA000EBAE12E7000000000000000000000000B4
:100AB0004FEA410212F5001215D211D56FF4787386
:100AC000B3EB625212D94FEAC12343F0004343EA29
:100AD000505311F0004F23FA02F018BF4042704704
:100AE0004FF00000704750EA013005D111F000408E
:100AF00008BF6FF0004070474FF00000704700BF24
:100B000053B94AB9002908BF00281CBF4FF0FF3174
:100B10004FF0FF3000F074B9ADF1080C6DE904CE70
:100B200000F006F8DDF804E0DDE9022304B07047C8
:100B30002DE9F047089E04468846002B4BD18A4297
:100B4000154667D9B2FA82F24AB1C2F1200701FA1A
:100B500002F320FA07F7954047EA030894404FEA6A
:100B6000154E230CB8FBFEF71FFA85FC0EFB178809
:100B700043EA084307FB0CF1994209D9EB1807F146
:100B8000FF3080F01B81994240F21881023F2B44D4
:100B90005B1AA4B2B3FBFEF00EFB103344EA03442D
:100BA00000FB0CFCA44509D92C1900F1FF3380F09F
:100BB0000781A44540F2048102382C4440EA0740F2
:100BC000A4EB0C0400271EB1D4400023C6E9004367
:100BD0003946BDE8F0878B4209D9002E00F0EB8042
:100BE0000027C6E9000138463946BDE8F087B3FA68
:100BF00083F7002F47D18B4202D3824200F2FA8062
:100C0000841A61EB030301209846002EE0D0C6E968
:100C10000048DDE702B9FFDEB2FA82F2002A40F0B6
:100C20008F80491B4FEA154E1FFA85F80127B1FB4B
:100C3000FEFC230C0EFB1C1143EA014308FB0CF1E4
:100C4000994207D9EB180CF1FF3002D2994200F219
:100C5000CD808446591AA3B2B1FBFEF00EFB1014EE
:100C600043EA044408FB00F8A04507D92C1900F119
:100C7000FF3302D2A04500F2B6801846A4EB080468
:100C800040EA0C409FE7C7F1200CBB4022FA0CFE63
:100C90004EEA030E01FA07F420FA0CF521FA0CF3E0
:100CA0004FEA1E482543B3FBF8F92C0C08FB193317
:100CB0001FFA8EFA44EA034309FB0AF49C4202FA43
:100CC00007F200FA07F10BD91EEB030309F1FF301D
:100CD00080F087809C4240F28480A9F1020973442D
:100CE0001B1BADB2B3FBF8F008FB103345EA03441D
:100CF00000FB0AFAA24508D91EEB040400F1FF33F9
:100D00006BD2A24569D90238744440EA0940A0FB7D
:100D10000289A4EB0A044C45C2464B4654D351D039
:100D2000002E69D0B1EB0A0564EB030404FA0CFC55
:100D3000FD40FC404CEA0505C6E90054002747E7A2
:100D4000C2F1200320FA03F7954001FA02F021FADC
:100D500003F34FEA154E3843010CB3FBFEF71FFABD
:100D600085F80EFB173341EA034107FB08F38B427A
:100D700004FA02F407D9691807F1FF3C2FD28B421D
:100D80002DD9023F2944CB1A81B2B3FBFEF00EFBF2
:100D9000103341EA034100FB08F38B4207D969187D
:100DA00000F1FF3C17D28B4215D902382944C91AE9
:100DB00040EA07473BE73746304609E70746E7E69C
:100DC0001846FBE64145ABD2B8EB020A69EB0E02CE
:100DD00001381346A4E76046E9E7184695E76746F9
:100DE000D1E781467CE702382C4447E7ACF1020C9E
:100DF0002B442FE7384608E73746E9E600000000B5
:100E0000704700BF0000000000000000000000006C
:100E1000844641EA000313F003036DD1403A41D305
:100E200051F8043B40F8043B51F8043B40F8043BC4
:100E300051F8043B40F8043B51F8043B40F8043BB4
:100E400051F8043B40F8043B51F8043B40F8043BA4
:100E500051F8043B40F8043B51F8043B40F8043B94
:100E600051F8043B40F8043B51F8043B40F8043B84
:100E700051F8043B40F8043B51F8043B40F8043B74
:100E800051F8043B40F8043B51F8043B40F8043B64
:100E900051F8043B40F8043B51F8043B40F8043B54
:100EA000403ABDD2303211D351F8043B40F8043BF4
:100EB00051F8043B40F8043B51F8043B40F8043B34
:100EC00051F8043B40F8043B103AEDD20C3205D304
:100ED00051F8043B40F8043B043AF9D2043208D0FC
:100EE000D2071CBF11F8013B00F8013B01D30B886E
:100EF00003806046704700BF082A13D38B078DD04C
:100F000010F003038AD0C3F10403D21ADB071CBF1D
:100F100011F8013B00F8013B80D331F8023B20F887
:100F2000023B7BE7043AD9D3013A11F8013B00F8C0
:100F3000013BF9D20B7803704B7843708B78837048
:100F40006046704700000000000000000000000044
:100F500090F800F06DE9024520F007016FF0000CF9
:100F600010F0070491F820F040F049804FF00004A1
:100F70006FF00700D1E9002391F840F000F108007C
:100F800082FA4CF2A4FA8CF283FA4CF3A2FA8CF3B4
:100F90004BBBD1E9022382FA4CF200F10800A4FA1B
:100FA0008CF283FA4CF3A2FA8CF3E3B9D1E904236F
:100FB00082FA4CF200F10800A4FA8CF283FA4CF3A6
:100FC000A2FA8CF37BB9D1E9062301F1200182FA60
:100FD0004CF200F10800A4FA8CF283FA4CF3A2FA66
:100FE0008CF3002BC6D0002A04BF04301A4612BA74
:100FF000B2FA82F2FDE8024500EBD2007047D1E977
:10100000002304F00305C4F100004FEAC50514F005
:10101000040F91F840F00CFA05F562EA05021CBFD6
:1010200063EA050362464FF00004A9E700000000F0
:1010300001F0FF01102A2BDB10F0070F08D010F889
:10104000013B013A8B422DD010F0070F42B3F6D18D
:10105000F0B441EA012141EA014122F007047FF0A6
:1010600000070023F0E80256083C85EA010586EAFD
:10107000010685FA47F5A3FA87F586FA47F6A5FA39
:1010800087F68EB9EED1F0BC01F0FF0102F0070245
:1010900032B110F8013B013A83EA010313B1F8D1F0
:1010A0000020704701387047002D06BF35460338D1
:1010B000073815F0010F07D1013015F4807F02BF0A
:1010C000013015F4C03F0130F0BC0138704700BF5B
:1010D0004FF0FF3C06E000BF4FF0010C02E000BF04
:1010E0004FF0010C4DF804CD4FEA410C7FEA6C5CE7
:1010F0004FEA430C18BF7FEA6C5C1BD001B050EA8A
:10110000410C0CBF52EA430C91EA030F02BF90EA74
:10111000020F0020704710F1000F91EA030F58BF33
:10112000994208BF90422CBFD8176FEAE37040F095
:10113000010070474FEA410C7FEA6C5C02D150EA33
:10114000013C07D14FEA430C7FEA6C5CD6D152EAEE
:10115000033CD3D05DF8040B704700BF84461046B3
:1011600062468C461946634600E000BF01B5FFF7B2
:10117000B7FF002848BF10F1000F01BD4DF808ED82
:10118000FFF7F4FF0CBF012000205DF808FB00BF53
:101190004DF808EDFFF7EAFF34BF012000205DF8AD
:1011A00008FB00BF4DF808EDFFF7E0FF94BF0120FA
:1011B00000205DF808FB00BF4DF808EDFFF7CEFFFB
:1011C00094BF012000205DF808FB00BF4DF808ED3A
:1011D000FFF7C4FF34BF012000205DF808FB00BF0B
:1011E0004FEA410C7FEA6C5C02D150EA013C0AD123
:1011F0004FEA430C7FEA6C5C02D152EA033C02D115
:101200004FF0000070474FF00100704700000000F1
:1012100010B5174B174C1B689AB0199302F000FDDC
:1012200000F0CEFD00F03CF900F0CAFC00F098FBA5
:101230004FF4FA7000F034FC204600F059FC4FF4F3
:101240007A7001F0D5FB0A220B49684607F008FFC7
:101250001421684600F0ACF8204600F021FC4FF461
:10126000FA7000F045FC4FF47A7001F0C1FBDFE743
:10127000000800200CFEFFFF40C300080000000033
:1012800000B5084B83B01A680192019A1B689A4214
:1012900005D1054803B05DF804EB00F0F9BDFFF798
:1012A000EFFF00BF0008002020C30008000000007E
:1012B00030B5104D81682B680F4A83B001930B68DD
:1012C00023F001030B608168946A03E0936A1B1B9F
:1012D000C72B09D8086810F00100F7D1019A2B68D4
:1012E0009A4204D103B030BD4FF0FF30F6E7FFF76C
:1012F000C7FF00BF000800202815002000000000E4
:10130000F0B5284D83B02B68019301F0C9FD00F0C2
:10131000DFFE254B1E69F20715D55A69234C42F0B2
:1013200001025A612778BB1F012B2AD90522636865
:1013300022701B680BB120469847042F27D0022F3C
:1013400025D003232370B30710D5174A174C5369D0
:1013500043F0020353612378032B1DD06368DB68DD
:101360000622227013B101211048984700F0D8FEE0
:10137000019A2B689A4213D103B0BDE8F04002F005
:101380000FBC019A2B689A420AD103B0F0BD022328
:101390002370B307EAD5D8E72046FFF789FFDDE7DA
:1013A000FFF76EFF0008002000000550D01100205C
:1013B00010B50A4B82B01A680192019C1B689C42CE
:1013C0000AD1074B1C6824680A4601461846234682
:1013D00002B0BDE810401847FFF752FF0008002098
:1013E0005C2300200000000000000000000000005E
:1013F0002DE9F043254E83B034680194042A9DF80A
:101400002890144605460F46984639D9B9F1000F81
:1014100014BF00224FF08052640002EB0863013CCD
:101420001C4405F00F0527F01F07202383F31188C4
:1014300001F06EFD3D4300F0CBFD154B1035DD6036
:101440001C6100F0E5FD01F07BFD124B1A689A4229
:1014500004D0996993688A689A420DD3002383F374
:101460001188BFF36F8FBFF34F8F019A33689A4291
:101470000AD103B0BDE8F083074800F009FDEDE7AD
:10148000064800F005FDC1E7FFF7FAFE000800205E
:1014900090ED00E028150020E0C30008C0C300085C
:1014A00030B5224D224C2B68224A85B003936368E5
:1014B00043F004036360536A43F480335362202390
:1014C00083F3118801F024FD00F082FD17221A4BEE
:1014D000E260236100F09CFD01F032FD174B1A68B9
:1014E0009A4204D0996993688A689A4218D3002076
:1014F00080F31188BFF36F8FBFF34F8F03231D223B
:1015000000904FF00051FFF773FF094A536843F012
:1015100001035360039A2B689A4205D105B030BD90
:10152000074800F0B5FCE2E7FFF7AAFE000800203C
:1015300090ED00E000ED00E009000010281500200B
:10154000E0C30008000000000000000000000000F0
:1015500070B51A4D1A4C1B4E0FCD0FC49EB02A68A1
:10156000336822801D93EFF30981682203A8FFF7F7
:101570004FFC154B9D6AAA0714D4EB0708D5124BF4
:1015800008995B6B114A00910D48802107F020FDFE
:101590001D9A33689A420FD109481EB0BDE87040C9
:1015A00000F076BC099A5B6B0092A4F11000084A27
:1015B000802107F00DFDE0E7FFF762FEA4C30008FD
:1015C000E41100200008002000ED00E080C30008C6
:1015D00060C30008000000000000000000000000E0
:1015E00000B51F4B0278196883B00191E2B11D4A22
:1015F0004FF4005111834278EAB11A4A4FF48051F6
:1016000011838278F2B1174A4FF480411183C27876
:10161000FAB9144A4FF400415183019A1B689A4267
:101620001CD103B05DF804FB0E4A4FF40051518306
:101630004278002AE1D10B4A4FF4805151838278DD
:10164000002AE0D1074A4FF480415183C278002A32
:10165000DFD0044A4FF400411183DEE7FFF710FEAC
:101660000008002000100240000000000000000000
:1016700000B51F4B0278196883B00191E2B11D4A91
:101680004FF4007111834278EAB11A4A4FF4807125
:1016900011838278F2B1174A4FF400611183C27846
:1016A000FAB9144A4FF480615183019A1B689A4237
:1016B0001CD103B05DF804FB0E4A4FF40071518356
:1016C0004278002AE1D10B4A4FF48071518382782D
:1016D000002AE0D1074A4FF400615183C278002A02
:1016E000DFD0044A4FF480611183DEE7FFF7C8FDC5
:1016F0000008002000100240000000000000000070
:1017000030B50C4A0C4B116883B04FF40055019171
:101710004FF480544FF400414FF480405D835C836C
:101720005883598301991368994201D103B030BDA0
:10173000FFF7A6FD00080020001002400000000096
:1017400030B50C4A0C4B116883B04FF40075019111
:101750004FF480744FF480614FF400605D835C83CC
:101760005883598301991368994201D103B030BD60
:10177000FFF786FD00080020001002400000000076
:1017800010B50B4C0B48236882B0992200210193BD
:1017900002F05EFD019A23689A4206D105480021B5
:1017A00002B0BDE8104002F03BBEFFF769FD00BF8C
:1017B00000080020082300200000000000000000B6
:1017C00010B50B4C0B48236882B09922002101937D
:1017D00002F03EFD019A23689A4206D10548002195
:1017E00002B0BDE8104002F01BBEFFF749FD00BF8C
:1017F000000800202423002000000000000000005A
:1018000000B5084B83B01A680192019A1B689A428E
:1018100006D10548002103B05DF804EB02F068BD75
:10182000FFF72EFD00080020082300200000000024
:1018300000B5084B83B01A680192019A1B689A425E
:1018400006D10548002103B05DF804EB02F050BD5D
:10185000FFF716FD000800202423002000000000F0
:1018600070B51A4C1A4E2378326882B0022B01925E
:10187000A26811D165781748013505F0070500EB1E
:101880008500904763686570013B6360019A336827
:101890009A4219D102B070BD012B08D0019933686A
:1018A000994211D10C4802B0BDE8704010476578EC
:1018B0000848013D05F0070500EB85009047636887
:1018C000657001336360E1E7FFF7DAFC8012002006
:1018D0000008002080C4000870C400080000000058
:1018E00070B51A4C1A4E2378326882B0012B0192DF
:1018F000A26811D165781748013505F0070500EB9E
:10190000850090476368657001336360019A3368AE
:101910009A4219D102B070BD022B08D001993368E8
:10192000994211D10C4802B0BDE87040104765786B
:101930000848013D05F0070500EB85009047636806
:101940006570013B6360E1E7FFF79AFC64120020D9
:101950000008002080C4000870C4000800000000D7
:1019600070B51D4E1D4A1E4B30681E491E4C9160BD
:1019700082B00021D46001901C4C1D481D4D9D601B
:10198000117051705160106154611B481B4A1C4D0D
:10199000D8601C48197059705960C3E90425FFF7D5
:1019A0001FFE1848FFF764FE1749204602F0B8FBF7
:1019B000204602F0EDFC2846144902F0B1FB019AE2
:1019C00033689A4205D1284602B0BDE8704002F063
:1019D000DFBCFFF755FC00BF00080020801200208C
:1019E00064120020E1150008811700080823002078
:1019F0000118000871160008C11700083118000806
:101A00002423002070C4000830C40008F0C300087C
:101A100030B5204D85B02B68039340F24C4399427A
:101A2000044628DCA3F69803994212DB4B00002BF6
:101A300081612BD10370036998474FF47A71039A3F
:101A40002B689A4220D1606905B0BDE8304002F0B1
:101A5000B7BB8361104B02225B42227040F28922A5
:101A600093420E4991FBF3F189B208DC0191E368DE
:101A700098470199E3E70122836102702D210191CA
:101A8000236998470199DAE7FFF7FAFBE3DD0122C2
:101A90000270E3E70008002068F7FFFFA08601005E
:101AA00030B50E4C83B023680193054600F010F961
:101AB000019A236840B99A420ED10948294603B0D9
:101AC000BDE83040FFF7A4BF9A4205D1284603B0D5
:101AD000BDE8304000F014B9FFF7D2FB0008002049
:101AE0006412002000000000000000000000000060
:101AF00030B50E4C83B023680193054600F0E8F83A
:101B0000019A236840B99A420ED10948294603B088
:101B1000BDE83040FFF77CBF9A4205D1284603B0AC
:101B2000BDE8304000F004B9FFF7AAFB0008002030
:101B300080120020000000000000000000000000F3
:101B40000A490B4B09680B4A82B0202001914021C1
:101B500058834FF4806559834FF400644FF48040FC
:101B600004215D835C8358835183FEE700080020D5
:101B7000000C0240000402400000000000000000D1
:101B800000B50A4B0A481B680A4C87B069460593A2
:101B900001224FF4F07301F0C3FB012001F0A8FC17
:101BA000684601F005FC2060F7E700BF0008002050
:101BB000602300209C1200200000000000000000B4
:101BC00010B50C4C0C4923680C4884B0039303F007
:101BD0000FF9002300934022094B0A484FF41E716D
:101BE00000F0AEFE039A23689A4201D104B010BD02
:101BF000FFF746FB00080020040800205C230020BB
:101C0000811B0008A012002000000000000000005E
:101C100000B5084B83B01A680192019A1B689A427A
:101C200005D1054803B05DF804EB01F0B9BAFFF740
:101C300027FB00BF00080020100800200000000063
:101C400000B5084B83B01A680192019A1B689A424A
:101C500005D1054803B05DF804EB01F0D9BAFFF7F0
:101C60000FFB00BF0008002010080020000000004B
:101C700070B50D4C82B0236801930D1E06460DDD34
:101C8000284601F005FF18B90C2333604FF0FF30F0
:101C9000019A23689A4205D102B070BD034800F052
:101CA000F7F8EDE7FFF7ECFA00080020A0C4000801
:101CB00000B5064B83B01A680192019A1B689A42DC
:101CC00002D103B05DF804FBFFF7DAFA0008002048
:101CD00000B5074B07491A68087883B00192019A4A
:101CE0001B689A4202D103B05DF804FBFFF7C8FA03
:101CF000000800201815002000000000000000006F
:101D000000B5074B07491A68086083B00192019A31
:101D10001B689A4202D103B05DF804FBFFF7B0FAEA
:101D2000000800201C15002000000000000000003A
:101D300000B5074B07491A68086083B00192019A01
:101D40001B689A4202D103B05DF804FBFFF798FAD2
:101D50000008002020150020000000000000000006
:101D600000B5064B83B01A680192019A1B689A422B
:101D700002D103B05DF804FBFFF782FA00080020EF
:101D8000024B82B01B680193FEE700BF00080020F1
:101D900000B5044B04481B6883B0019300F078F849
:101DA000FEE700BF00080020B0C4000800000000EB
:101DB000024B82B01B680193FEE700BF00080020C1
:101DC000F0B5294E294B3268294885B0002403928A
:101DD0009C60D968274A4FF6FF0529400A43DA601C
:101DE000C2682549254D42F08072C2600A6842F0FF
:101DF00001020A6010202022D87783F8222000F008
:101E0000DFFA00F045FA00F0D3FF01F019FE01F00F
:101E100087FE01F025F800F0FBF9402105F5886008
:101E200000F0F6FC0127164BC36180F82070A86112
:101E300000F0A6F884F3118862B6AB69114A9A6182
:101E40004FF4C4713A46104B009405F59D6000F0C4
:101E500077FD039A33680D4981619A4201D105B03B
:101E6000F0BDFFF70DFA00BF0008002000ED00E014
:101E7000F0ED00E00003FA05001000E02815002056
:101E80000004002030C60008B11D0008D0C40008BE
:101E900000B5054B83B01B680193044672B6FFF78B
:101EA0004FFE024BDC62FEE70008002028150020F0
:101EB0002DE9F047DFF890A0224DDAF8003082B02B
:101EC000019300F055F9AB6993F8232012B1013A60
:101ED00083F823205A6ADFF8748001325A6200F0D6
:101EE00047F9AB6AEA6901334245AB6220D0936897
:101EF000013B9360EC69A668D6B94FF020092368CE
:101F0000E768E660C3F804802368EB6100F0C0F87E
:101F100001F046F886F311882069B84789F31188E3
:101F200001F026F800F094F8EC69A368002BE6D0E5
:101F3000019ADAF800309A4202D102B0BDE8F08787
:101F4000FFF79EF928150020000800204415002006
:101F500010B5094C094A236882B00193516853684F
:101F60005B1A9842FBD8019A23689A4201D102B0C9
:101F700010BDFFF785F900BF00080020001000E049
:101F800000B50E4A0E4B116B186883B0019009B969
:101F9000526B4AB1019A1B689A420CD1094803B0AE
:101FA0005DF804EBFFF774BF019A1B689A4202D1F7
:101FB00003B05DF804FBFFF763F900BF28150020AC
:101FC00000080020E0C4000800000000000000003D
:101FD00030B50B4C0B4D236B2A6883B001920BB9C3
:101FE000636B13B10848FFF753FF019A2B68012177
:101FF0009A42616301D103B030BDFFF741F900BFE0
:10200000281500200008002010C50008000000006E
:1020100030B50C4C0C4D236B2A6883B0019253B938
:10202000636B002B07DD019A2B6800219A426163E4
:1020300005D103B030BD0548FFF72AFFF3E7FFF7EE
:102040001FF900BF281500200008002030C5000837
:1020500030B50B4C0B4D236B2A6883B0002B0192DB
:1020600001DD636B13B10848FFF712FF019A2B687B
:1020700001219A42616301D103B030BDFFF700F93D
:10208000281500200008002020C5000800000000DE
:1020900030B50C4C0C4D236B2A6883B0002B019299
:1020A0000ADD636B002B07DD019A2B6800219A4241
:1020B000616305D103B030BD0448FFF7E9FEF3E7E3
:1020C000FFF7DEF8281500200008002040C50008B2
:1020D00030B50F4D83B02B680193202383F3118813
:1020E0000C4C236B002B01DB626B1AB10A48FFF723
:1020F000CFFE236B01332363002383F31188019AFE
:102100002B689A4201D103B030BDFFF7B9F800BF88
:102110000008002028150020F0C40008000000007E
:1021200030B50F4D83B02B680193202383F31188C2
:102130000C4C236B002B01DD626B1AB10A48FFF7D0
:10214000A7FE236B013B2363002383F31188019ACD
:102150002B689A4201D103B030BDFFF791F800BF60
:10216000000800202815002000C50008000000001D
:1021700000B50F4A0F4B116B186883B0002901900E
:1021800009DB526B002A06DD019A1B689A420CD1CA
:1021900003B05DF804FB019A1B689A4205D106481A
:1021A00003B05DF804EBFFF773BEFFF769F800BFFB
:1021B000281500200008002050C50008000000007D
:1021C00000B50E4A0E4B116B186883B0019049B9E7
:1021D000526B002A06DD019A1B689A420CD103B0AB
:1021E0005DF804FB019A1B689A4205D1054803B0CB
:1021F0005DF804EBFFF74CBEFFF742F8281500200E
:102200000008002060C50008000000000000000079
:1022100010B5084A084B116882B040240191019919
:10222000126818199142C3E90E4001D102B010BDE5
:10223000FFF726F800080020281500200000000005
:1022400010B51149114B0A6882B00192DA6B9C6A91
:102250001460DA6B9C695460DA6B846A9460DA6BA0
:1022600090F820001073DA6B03F588601032824218
:1022700028BF03F14002DA63019A0B689A4201D148
:1022800002B010BDFEF7FCFF00080020281500205A
:1022900010B50B4A0B4B116882B04FF0FF3401911F
:1022A00000219962019811685C6203F11C02884266
:1022B000C3E9072201D102B010BDFEF7E1FF00BF64
:1022C0000008002028150020000000000000000089
:1022D0002DE9F041184E82B00546306801900C4659
:1022E00017469846FFF744FF05B3FFB1F4B1C5E9BF
:1022F00003781248C3699A68944204D91B68A41AE7
:102300009A68A242FAD32B605A686A6015605D60D1
:10231000AC609968019D3268091B95424FF0FF340B
:102320009960446206D102B0BDE8F0810448FFF72D
:10233000AFFDDCE7FEF7A4FF000800202815002011
:1023400070C5000800000000000000000000000050
:1023500030B5164D83B004462B680193FFF708FF94
:10236000ECB1E368BBB12268A068936801990344AB
:102370009360D4E900231A6020682B680C4A6568D2
:10238000456099424FF000054FF0FF30E560506224
:1023900009D103B030BD0748FFF77AFDE3E70548F0
:1023A000FFF776FDDDE7FEF76BFF00BF00080020BA
:1023B0002815002080C50008000000000000000073
:1023C00000B50A4A0A4B11681B6083B000200191D6
:1023D000019912685B609142C3E90433986002D1AD
:1023E00003B05DF804FBFEF74BFF00BF00080020C0
:1023F0002815002000000000000000000000000080
:1024000030B5164D83B004462B680193FFF7B0FE3C
:10241000ECB194F82030B3B10F2B14D00022A16896
:102420000F4B84F820201B689A688A42FBD22360F5
:102430005A686260146001992A685C609142204683
:1024400009D103B030BD0748FFF722FDE6E7054894
:10245000FFF71EFDDDE7FEF713FF00BF00080020B9
:102460002815002090C500080000000000000000B2
:1024700070B5204D82B02B6801930446202383F36E
:10248000118800F075FDFFF7E3FD94F82030072B6D
:1024900011D8DFE803F0161010230A04100AA66A08
:1024A000FFF766FEB3680133B360D4E900231A6016
:1024B000D4E900325A604FF0FF33A3622046FFF7A1
:1024C0009FFFFFF7E5FD00F06BFD002383F311880C
:1024D000019A2B689A420BD102B070BDA36A002208
:1024E0001A604FF0FF33A3622046FFF789FFE8E749
:1024F000FEF7C6FE000800200000000000000000FB
:10250000F0B5194E194C336883B007460193FFF7B5
:1025100057FEA569236885F82070142285F82320CA
:102520001A68226001215460284683F82010A361B4
:10253000FFF786FE2946A06900F0CAFCEFF3098385
:10254000EA69643B9A4202D90948FFF7A1FC019A63
:1025500033689A4206D1A069294603B0BDE8F0402D
:10256000FDF7A6BEFEF78CFE00080020281500200F
:10257000A0C50008000000000000000000000000EE
:10258000F0B5154C87B0236805930E460746FFF754
:1025900017FE731C18D0114D114AAB6931466846BD
:1025A000FFF796FE3846FFF7ABFFFFF7E1FD039B11
:1025B00013B16846FFF7CCFE059A2368A9699A42D1
:1025C000886A06D107B0F0BD3846FFF799FF034D82
:1025D000F2E7FEF755FE00BF000800202815002096
:1025E000712400080000000000000000000000004E
:1025F000F0B51E4D1E4E2B6883B0044601930F4666
:10260000FFF7DEFDB069A7628368A2689A421DD910
:10261000FFF7F6FE0123074684F82030B461FFF788
:102620000FFE3946204600F053FCEFF30983FA69A8
:10263000643B9A4214D8019A2B689A4214D13946C5
:10264000204603B0BDE8F040FDF732BE019A2B688A
:102650009A4209D1204603B0BDE8F040FFF7D0BE52
:102660000448FFF715FCE6E7FEF70AFE0008002025
:1026700028150020A0C50008000000000000000090
:1026800010B50E490E4B8A69086892F823101C6831
:102690008068926882B0019449B9904234BF0020AA
:1026A0000120019A1B689A4206D102B010BD9042E7
:1026B00094BF00200120F4E7FEF7E2FD281500207A
:1026C00000080020000000000000000000000000E2
:1026D00070B5184C184E2368A5691A6822605460BA
:1026E000012283F8202082B01422316885F823204B
:1026F0002846A3610191FFF783FE2846FFF7A0FD5E
:102700002946A06900F0E4FBEFF30983EA69643B22
:102710009A4202D90948FFF7BBFB019A33689A42F3
:1027200006D1A069294602B0BDE87040FDF7C0BDE2
:10273000FEF7A6FD2815002000080020A0C500080F
:1027400070B51C4D1C4E2A68AC6913682B600121C2
:1027500082B05D60002082F82010AA613268A16812
:1027600084F82000019200E01B689A688A42FBD836
:1027700023605A686260204614605C60FFF760FD69
:102780002146A86900F0A4FBEFF30983E269643BEA
:102790009A4202D90948FFF77BFB019A33689A42B3
:1027A00006D1A869214602B0BDE87040FDF780BDA2
:1027B000FEF766FD2815002000080020A0C50008CF
:1027C00000B50E4A0E4B9269196892F8232083B027
:1027D000019142B1019A1B689A420DD103B05DF894
:1027E00004EBFFF7ADBF019A1B689A4204D103B016
:1027F0005DF804EBFFF76CBFFEF742FD28150020E3
:1028000000080020000000000000000000000000A0
:10281000F0B51A4A1A4D02610446816083B0142350
:1028200050692E68616484F8233002270023012157
:10283000278484F82210C4E90F3304F16801A361EE
:10284000019604F12C07636204F1500604F1300391
:1028500060610461C4E90C33E1613046E7625461B0
:1028600000F03EFA304600F05BFA019A2B689A427B
:1028700002D1204603B0F0BDFEF702FD281500206E
:102880000008002000000000000000000000000020
:1028900010B5094B82B01C680194884203D200F83D
:1028A000012B8142FBD1019A1B689A4201D102B0EF
:1028B00010BDFEF7E5FC00BF00080020000000008E
:1028C0002DE9F043184E83B0346801940546DDF8D5
:1028D00028900C4617469846FFF74AFC15B1B4F508
:1028E000BC7F19D21148FFF7D3FAA4F1640129443F
:1028F000E960C1F84080EB68019AC3F844903368FE
:10290000E9680B4808669A420CD13946284603B05C
:10291000BDE8F043FFF77CBF7F2FE3D8B8F1000F8D
:10292000E3D1DFE7FEF7ACFC00080020F0C50008AB
:10293000C9020008000000000000000000000000C4
:102940002DE9F04FDFF8A48087B0D8F80040DDF81B
:102950004090059407468A46934600F1680604466F
:10296000FF2504F8015BA642FBD107EB0A05A5424F
:1029700004D9552604F8016BA542FBD1039320220C
:1029800082F3118800F0C4FAFFF722FB039BCDF815
:1029900000905A4651463846FFF792FF0021044600
:1029A000FFF726FEFFF734FB00F0CAFA0D4B1A685A
:1029B0009A4204D0996993688A689A420BD300239B
:1029C00083F31188059AD8F800309A42204606D140
:1029D00007B0BDE8F08F0448FFF75AFAEFE7FEF7BB
:1029E0004FFC00BF28150020B0C5000800080020DB
:1029F00030B5184C83B0236801930546202383F338
:102A0000118800F085FAFFF7E3FA15B91248FFF7CD
:102A10003FFA29460820FFF7B3FDFFF7F9FA00F067
:102A20008FFA0E4B1A689A4204D0996993688A68A3
:102A30009A4208D3002383F31188019A23689A42AB
:102A400005D103B030BD0648FFF722FAF2E7FEF7E2
:102A500017FC00BF00080020C0C500082815002092
:102A6000B0C50008000000000000000000000000E9
:102A700070B5164B164E9C693268E36AA06282B04C
:102A800004F12C05AB42019207D01A68E2621846A5
:102A9000FFF7B6FCE36AAB42F7D194F821309B070D
:102AA00005D1D4E904231A61D4E904325A610F2014
:102AB000FFF726FD019A33689A4205D1054802B016
:102AC000BDE87040FFF7E4B9FEF7DAFB28150020F7
:102AD0000008002000C60008000000000000000000
:102AE00030B50C4C83B0236801930546202383F353
:102AF000118800F00DFAFFF76BFA019A23689A42E9
:102B000005D1284603B0BDE83040FFF7B1BFFEF75E
:102B1000B7FB00BF0008002000000000000000001C
:102B2000F0B50D4D0D4E03682A68B76983B00446B1
:102B3000019213B10A48FFF7ABF927600320BC628A
:102B4000FFF7DEFC019A2B68B1699A42886A01D1CD
:102B500003B0F0BDFEF794FB00080020281500200C
:102B600010C6000800000000000000000000000087
:102B7000F0B5124D04682B6883B00193B4B194F89A
:102B80002030032B06460F460CD100233360019AF8
:102B90002B68A7629A420FD1204603B0BDE8F040EF
:102BA000FFF72EBC0648FFF773F9EEE7019A2B6892
:102BB0009A4201D103B0F0BDFEF762FB000800208D
:102BC00020C6000800000000000000000000000017
:102BD00030B5104A83B01368019381B10E4B019D4B
:102BE0009B69186044685C6023601268436095428A
:102BF0000DD1042003B0BDE83040FFF7C1BC0199FE
:102C0000136899424FF0FF3001D103B030BDFEF799
:102C100037FB00BF0008002028150020000000003E
:102C200070B5124D04682B6882B0A042019315D094
:102C300023680360586094F82030042B0E4602D0BD
:102C40000B48FFF725F9019A2B68A6629A420BD12F
:102C5000204602B0BDE87040FFF7D2BB019A2B6856
:102C60009A4201D102B070BDFEF70AFB00080020B5
:102C7000D0C50008000000000000000000000000B7
:102C80002DE9F041DFF850800468D8F8003082B0B8
:102C9000A042019313D00F4F05460E4623682B60C8
:102CA0005D6094F82030042B02D03846FFF7F0F82E
:102CB000A6622046FFF7A4FB2C68A542EED1019A3C
:102CC000D8F800309A4202D102B0BDE8F081FEF798
:102CD000D7FA00BFD0C5000800080020000000009F
:102CE00030B50B4B83B01A6801924FF0FF3202608F
:102CF00001991A680024002300259142C0E9044587
:102D0000C0E90133C36001D103B030BDFEF7B8FAAA
:102D1000000800200000000000000000000000008B
:102D200000B5084B084A196883B001915168019AAF
:102D30001B6881609A4202D103B05DF804FBFEF784
:102D40009FFA00BF00080020001000E00000000013
:102D5000F0B51449144B0A68846883B00192134A91
:102D60005B68D2F8A864C2681B1BD0E90445013235
:102D70009B1BC26042688360E61845F100079342DE
:102D8000C0E9046709D80268934238BF0360019A1A
:102D90000B689A4203D103B0F0BD4360F7E7FEF73A
:102DA0006FFA00BF00080020001000E02815002086
:102DB00030B5114D114C2B6889B04FF0FF3107939E
:102DC000002300226846C4F8A834CDE901330393F8
:102DD0000023CDE904230091FFF7A2FF6846FFF727
:102DE000B7FF079A2B680299C4F8A8149A4201D138
:102DF00009B030BDFEF744FA000800202815002075
:102E00002DE97048134E144B326883B001925B6811
:102E10008B60D0E902411B1BD0E90445426814EBEA
:102E2000030B45F1000C01319342C0E90231C0E9C6
:102E300004BC0AD80268934238BF0360019A336821
:102E40009A4204D103B0BDE870884360F6E7FEF70C
:102E500017FA00BF00080020001000E0000000008A
:102E600030B50D4D0D4C2B6883B004F59760019380
:102E70000023C4F8B034C4F8B434FFF731FF019A2A
:102E80002B689A4206D104F59A6003B0BDE8304041
:102E9000FFF726BFFEF7F4F90008002028150020F0
:102EA00000B50949094A0B6883B001930198D2F82B
:102EB000B034096801338842C2F8B03402D103B09B
:102EC0005DF804FBFEF7DCF900080020281500205F
:102ED00070B50D4C0D4A236882B00193019DD2F864
:102EE000B43424680133A542C2F8B43409D10E4683
:102EF00000F1500106F1500002B0BDE87040FFF74C
:102F00007FBFFEF7BDF900BF000800202815002094
:102F100000B5084B83B01A680192019A1B689A4267
:102F200005D1054803B05DF804EBFFF7F9BEFEF7E5
:102F3000A7F900BF00080020E019002000000000F1
:102F400000B5084B83B01A680192019A1B689A4237
:102F500005D1054803B05DF804EBFFF7F9BEFEF7B5
:102F60008FF900BF00080020E019002000000000D9
:102F700000B5084B83B01A680192019A1B689A4207
:102F800005D1054803B05DF804EBFFF7C9BEFEF7B5
:102F900077F900BF00080020F819002000000000A9
:102FA00000B5084B83B01A680192019A1B689A42D7
:102FB00005D1054803B05DF804EBFFF7C9BEFEF785
:102FC0005FF900BF00080020F81900200000000091
:102FD00030B50B4D83B02B680193044650B124608B
:102FE00001992A68646000239142A360236105D19E
:102FF00003B030BD0348FEF74BFFF0E7FEF740F9A2
:103000000008002060C6000800000000000000006A
:10301000F0B55D4E5D4B32689D6983B00446019208
:10302000FFF7CEF8002C00F08480A0682369002808
:1030300043D0002B40F39780854276D0AA688368FE
:103040009A4208D990F820308260062B40D0072B96
:1030500073D0002B5DD02746234603E09968AA6809
:10306000914233D31B689C42F8D12F607B686B6020
:1030700006201D607D60AC62FFF742FAA368AB4298
:1030800002D04348FEF704FF2B6CA34202D0404815
:10309000FEF7FEFE2369012B05D1019A33689A429F
:1030A0006FD103B0F0BD019A33689A4269D13848B4
:1030B00003B0BDE8F040FEF7EBBE002B58D1013362
:1030C000A56023612B6CE3602C64E6E71F46CCE728
:1030D000D0E900231A60D0E900325A60876A3B4683
:1030E00003E099688268914247D31B689F42F8D1F8
:1030F00007607B68436018607860836AAA68986894
:1031000083689342A7D290F820308260062B9ED12C
:10311000DEE7D0E90023012180F820101A60D0E911
:1031200000325A60FFF76CF995E723690133236198
:10313000B3E71748FEF7ACFE77E7D0E900231A6043
:10314000D0E900325A60876A3B4603E0996882689A
:10315000914214D31B689F42F8D107607B6843609B
:103160001860786077E70A48FEF792FEA06863E788
:103170000748FEF78DFE2369A1E71F46B8E71F4603
:10318000EBE7FEF77DF800BF0008002028150020BF
:1031900070C60008000000000000000000000000F1
:1031A00030B5154C83B0236801930546202383F383
:1031B0001188FFF7ADFEFEF70BFF2846FFF728FF4B
:1031C000FEF726FFFFF7BCFE0C4B1A689A4204D0AC
:1031D000996993688A689A4208D3002383F3118817
:1031E000019A23689A4205D103B030BD0448FEF726
:1031F0004FFEF2E7FEF744F80008002028150020F3
:1032000050C60008000000000000000000000000A0
:103210002DE9F043DFF800813C4FD8F80030BE695B
:1032200083B005460193002864D0202383F31188DE
:10323000FFF76EFEFEF7CCFE336C002B5ED09B6872
:10324000B34202D03248FEF723FE2B69002B49DD42
:10325000013B2B615BBB336CAB4202D02C48FEF7C9
:1032600017FEEB683364FEF7ABFF2B689D423ED040
:10327000D6E910495CB1FEF7A3FF23689C4203D056
:103280009B68994538BF9946E468002CF3D1C6F88D
:1032900008902B6801222A611A682A605560AB6089
:1032A0001A6CEA6018461D640021FFF7A1F9FEF7C9
:1032B000AFFEFFF745FE3B68BB4204D0BA699B688E
:1032C00092689A420AD3002383F31188019AD8F8AE
:1032D00000309A4217D103B0BDE8F0830D48FEF7E5
:1032E000D7FDF0E70A48FEF7D3FD2B69B0E70023CE
:1032F000AB60DCE70648FEF7CBFD96E70448FEF737
:10330000C7FD336C9BE7FDF7BBFF00BF281500200E
:1033100080C6000850C60008000800200000000019
:103320002DE9F0431D4F83B03C68019491460C4653
:103330009846064660B359B3202383F31188FFF7FC
:10334000E7FD174DFEF744FE336823603460AB6938
:1033500063600023C4E90338C4F80890FEF758FE00
:10336000FFF7EEFD2B68AB4204D0AA699B68926818
:103370009A4209D3002383F31188019A3B689A4249
:103380000AD103B0BDE8F0830648FEF781FDF1E7FE
:103390000548FEF77DFDCFE7FDF772FF000800202E
:1033A0002815002090C60008A0C6000800000000F4
:1033B00070B5164C82B0236801930546202383F331
:1033C0001188FFF7A5FDFEF703FE0023EE68EB6012
:1033D000FEF71EFEFFF7B4FD0D4B1A689A4204D0AB
:1033E000996993688A689A4209D3002383F3118804
:1033F000019A23689A42304605D102B070BD054853
:10340000FEF746FDF1E7FDF73BFF00BF0008002097
:103410002815002090C600080000000000000000F1
:1034200070B5184E82B00446336801930D46FEF71E
:103430009FFE0CB3E16B94F8203029430A2BE16323
:1034400016D00B2B05D0019A33689A4218D102B0DE
:1034500070BDA36A8B43F6D1019A336800219A426A
:10346000A1620DD1204602B0BDE87040FEF7C8BF92
:10347000A36A1942F0D1E6E70348FEF709FDD9E750
:10348000FDF7FEFE00080020E0C600080000000076
:10349000F0B5134F83B006463B6801930D46FEF727
:1034A00067FEB6B13468A6420DD0E3682B43E360F3
:1034B00015B12269134203D0D4E90101FFF7B0FF2F
:1034C0002468A642F1D1019A3B689A4205D103B023
:1034D000F0BD0448FEF7DCFCE4E7FDF7D1FE00BFD9
:1034E00000080020C0C60008000000000000000026
:1034F0002DE9F041DFF87C801C4CD8F80030A5693C
:1035000082B006460193202383F31188FFF700FD64
:10351000FEF75EFDEB6B13EA060706D1AE620A20EA
:10352000FEF7EEFFEB6B03EA060723EA0703EB6304
:10353000FEF76EFDFFF704FD2368A34204D0A269E5
:103540009B6892689A420BD3002383F31188019AF7
:10355000D8F800309A42384606D102B0BDE8F08172
:103560000348FEF795FCEFE7FDF78AFE28150020DB
:1035700090C60008000800200000000000000000C5
:1035800070B50C4CC16082B0266801960A44006098
:10359000019E02612268069D4060C0E905119642C5
:1035A0004FF00001C3618160056201D102B070BDBE
:1035B000FDF766FE0008002000000000000000008B
:1035C00070B5164D82B004462B6801930E46FEF787
:1035D000CFFDFEF7CDFDD4E905239A42A36816D0AE
:1035E0000133511CA36061611670D4E904329A4220
:1035F0000AD220460021FFF713FB0020019A2B6816
:103600009A4209D102B070BDE3686361F1E7002B13
:10361000E6D06FF00300F1E7FDF732FE000800206E
:10362000F0B5234F83B03B68019304460E46202338
:1036300083F31188FFF76CFCFEF7CAFCE36943B122
:103640002046984705E031462046FFF7C1FA051E9F
:1036500010DBFEF78DFDA368002BF4D0A169206973
:103660004A1C013B8242A360A26128BFE3680D7837
:1036700028BFA361FEF7CCFCFFF762FC0D4B1A6874
:103680009A4204D0996993688A689A4209D30023C0
:1036900083F31188019A3B689A42284605D103B00A
:1036A000F0BD0548FEF7F4FBF1E7FDF7E9FD00BFCB
:1036B0000008002028150020F0C6000800000000C7
:1036C0002DE9F04FDFF8F490044685B0D9F80000FA
:1036D00003908A461D46D4F81C809346002A60D089
:1036E000202383F311880193FFF712FCFEF770FC8F
:1036F0002F4E0027B8F1000F07D02046C04704E046
:1037000029462046FFF764FA60BBFEF731FDA36847
:10371000002BF5D0A269013B511CA161A360137875
:103720000AF8013B2369A2699A4224BFE368A361B6
:10373000FEF76EFCFFF704FC3368B34204D0B269B5
:103740009B6892689A4228D3002383F3118801373B
:10375000BB4519D0019B83F31188FFF7D9FBFEF716
:1037600037FCC7E7FEF754FCFFF7EAFB3368B342C8
:1037700007D0B2699B6892689A4202D20D48FEF760
:1037800087FB002383F31188039AD9F800309A420B
:1037900038460AD105B0BDE8F08F0648FEF778FB41
:1037A000D2E70548FEF774FB9AE7FDF769FD00BF15
:1037B00028150020F0C6000800C7000800080020F7
:1037C00070B50B4D82602E68C16082B0C0E9000008
:1037D00001960A44019E02612A68069C9642C0E94D
:1037E0000511C0E9073401D102B070BDFDF748FDF5
:1037F00000080020000000000000000000000000A1
:103800002DE9F0412E4F82B03B6801930446884673
:103810001646202383F31188FFF77AFBFEF7D8FBC7
:1038200005E031462046FFF7D3F9051E2DDBFEF7F4
:103830009FFCA368002BF4D06269013B511C6161BD
:10384000A36082F80080D4E904329A4224BFE3687E
:103850006361E3690BB120469847FEF7D9FBFFF798
:103860006FFB184B1A689A4204D0996993688A686A
:103870009A421ED3002585F31188019A3B689A422B
:1038800028461AD102B0BDE8F081FEF7C1FBFFF770
:1038900057FB0C4B1A689A4207D0996993688A685B
:1038A0009A4202D20848FEF7F3FA002383F3118804
:1038B000E3E70548FEF7ECFADCE7FDF7E1FC00BFC3
:1038C0000008002028150020F0C6000800000000B5
:1038D00070B5154E82B0044633680193FEF748FC7C
:1038E000FEF746FCD4E905329342A36815D020695F
:1038F000511C0133A360A161814215780AD2204690
:103900000021FFF78DF92846019A33689A4209D1C0
:1039100002B070BDE368A361F1E7002BE7D06FF060
:103920000200F1E7FDF7ACFC0008002000000000F9
:103930002DE9F04F04463B48D4F81C90006885B050
:103940000D46039001931646002A61D04FF0200ADD
:103950008AF31188FFF7DCFAFEF73AFB4FF0000814
:10396000314FC346FEF704FCA368002B32D06269D6
:10397000013B511C6161A3602B781370D4E90432C0
:103980009A4224BFE36863610135B9F1000F01D0A9
:103990002046C847FEF73CFBFFF7D2FA3B68BB4224
:1039A00007D0BA699B6892689A4202D21F48FEF714
:1039B0006FFA8BF31188013E08F101081FD08AF3DA
:1039C0001188FFF7A5FAFEF703FBFEF7D1FBA3680A
:1039D000002BCCD101992046FFF7FAF80028C1D07E
:1039E000FEF716FBFFF7ACFA3B68BB4204D0BA699E
:1039F0009B6892689A420FD3002383F31188094B86
:103A0000039A1B689A4240460AD105B0BDE8F08F80
:103A10000748FEF73DFA99E70448FEF739FAEBE765
:103A2000FDF72EFC0008002028150020F0C6000835
:103A300010C70008000000000000000000000000A7
:103A400030B50B490B4A0B680B4D0C4C83B022F080
:103A50000702019301980A4B09682A6023F00703C3
:103A60008842236001D103B030BDFDF709FC00BFDF
:103A700000080020EF2400209C1B0020981B002041
:103A80000000022000000000000000000000000014
:103A900070B51C4E82B0336801930446202383F333
:103AA0001188FFF735FAFEF793FAFEF761FB164A25
:103AB000164B15681B68E01D20F007005B1B984241
:103AC0009ABF401910600025FEF7A2FAFFF738FAF6
:103AD0000F4B1A689A4204D0996993688A689A428F
:103AE00009D3002383F31188019A33689A42284648
:103AF00005D102B070BD0748FEF7CAF9F1E7FDF73E
:103B0000BFFB00BF000800209C1B0020981B00206A
:103B10002815002030C70008000000000000000049
:103B200000B50B4B0B481A6883B0019201991A68D3
:103B3000094B036091424FF00003C0E9023305D105
:103B4000103003B05DF804EBFFF742BAFDF798FBC5
:103B500000080020A01B0020913A0008000000008F
:103B600080B50D4A0D4982B000AF13687B604B6889
:103B700023F001034B60EFF30983683383F3098873
:103B8000002383F3118879681368994202D10837BA
:103B9000BD4680BDFDF774FB0008002030EF00E05B
:103BA000B0B5194C82B000AF23687B60202383F34B
:103BB0001188164B5B6813F4006308D183F31188F6
:103BC0007A6823689A421DD10837BD46B0BDF1EE30
:103BD000103AEFF309854FF080720D4B45F84C2CED
:103BE000DB6845F8083CA5F1680383F30988FEF714
:103BF00047FD18B1074B45F8503CE1E7064B45F847
:103C0000503CDDE7FDF73CFB0008002000ED00E044
:103C100030EF00E0E1020008F402000800000000BC
:103C200010B5184C82B02368019302F011F81648C1
:103C300003F02EFB00F0D4F800F00AF900F050F980
:103C400000F07EF900F0ACF900F0DAF900F008FAC3
:103C500000F036FA01F084F800F08AFF01F058F91C
:103C600001F09EF901F044F904F092FE019A2368F4
:103C70009A4204D102B0BDE8104001F079B9FDF7D5
:103C8000FFFA00BF00080020C0CB000800000000C1
:103C9000F0B51A4D83B02B68019391420E4614463D
:103CA000074619D38B1A1F2B16D806F01F03581C72
:103CB0006209012376098340B24203F1FF3304F025
:103CC0001F0457F822000BD31840E040019A2B68DC
:103CD0009A4210D103B0F0BD0948FEF7D9F8E4E7E5
:103CE00057F82610C4F120020B4020FA04F403FA1E
:103CF00002F02043EAE7FDF7C3FA00BF0008002006
:103D000040C70008000000000000000000000000A4
:103D1000F0B51D4E83B033680193054670B37E2223
:103D20007F212846FFF7B4FF80B1012806D000208C
:103D3000019A33689A4225D103B0F0BD284630225B
:103D40004521FFF7A5FF01308002F1E73E2249211E
:103D50002846FFF79DFF2F22044631212846FFF712
:103D600097FF5022074653212846FFF791FF013461
:103D700002370938BC4004FA00F0D9E70348FEF7DF
:103D800087F8CCE7FDF77CFA0008002060C7000840
:103D9000F0B5104D83B02B680193044698B194F8A8
:103DA000D63094F8D770019994F8D4602A6894F8C2
:103DB000D5001B0403EB07633344914203EB00205F
:103DC00005D103B0F0BD0448FEF762F8E7E7FDF760
:103DD00057FA00BF0008002080C70008000000005C
:103DE00000B5074B83B01A680192019A1B689A428A
:103DF00004D103B05DF804EB01F0EABFFDF740FA2F
:103E0000000800200000000000000000000000008A
:103E100000B50C4B83B01A6801920122027001991F
:103E20001A6800239142C0E90133C0E903334361BA
:103E300005D1183003B05DF804EBFFF7C9B8FDF702
:103E40001FFA00BF00080020000000000000000072
:103E500000B5074B83B01A680192019A1B689A4219
:103E600004D103B05DF804EB02F05ABDFDF708FA87
:103E7000000800200000000000000000000000001A
:103E800030B5134B83B01A68019201220270019C75
:103E90001968002200F1180300F11C0542608361DB
:103EA00000F1200200F12403C561026200F128053F
:103EB00000F1080243628C4200F110038562C0E900
:103EC0000222C0E9043301D103B030BDFDF7D8F9B7
:103ED00000080020000000000000000000000000BA
:103EE00000B5074B83B01A680192019A1B689A4289
:103EF00004D103B05DF804EB03F0AAB9FDF7C0F9F3
:103F00000008002000000000000000000000000089
:103F100000B50A4B83B01A68019201220270019920
:103F20001A6800239142C0E9043305D1183003B068
:103F30005DF804EBFFF74CB8FDF7A2F9000800208C
:103F400000B5074B83B01A680192019A1B689A4228
:103F500004D103B05DF804EB02F002BDFDF790F967
:103F60000008002000000000000000000000000029
:103F700000B5084B83B01A68019201220270019AC1
:103F80001B6800219A42416002D103B05DF804FB36
:103F9000FDF776F900080020000000000000000096
:103FA00000B5074B83B01A680192019A1B689A42C8
:103FB00004D103B05DF804EB04F06AB8FDF760F9D2
:103FC00000080020000000000000000000000000C9
:103FD00000B5084B83B01A68019201220270019A61
:103FE0001B6800219A42416002D103B05DF804FBD6
:103FF000FDF746F900080020000000000000000066
:1040000000B5074B83B01A680192019A1B689A4267
:1040100004D103B05DF804EB03F052BBFDF730F9B7
:104020000008002000000000000000000000000068
:1040300000B50A4B83B01A68019201220270019AFE
:104040001B6800219A42416005D10C3003B05DF835
:1040500004EBFEF7BDBFFDF713F900BF0008002019
:1040600000B5074B83B01A680192019A1B689A4207
:1040700004D103B05DF804EB03F02ABFFDF700F9AB
:104080000008002000000000000000000000000008
:1040900000B5084B83B01A68019201220270019AA0
:1040A0001B6800219A42416002D103B05DF804FB15
:1040B000FDF7E6F800080020000000000000000006
:1040C00000B5074B83B01A680192019A1B689A42A7
:1040D00004D103B05DF804EB04F0CAB8FDF7D0F8E2
:1040E00000080020000000000000000000000000A8
:1040F00000B5094B83B01A68019201220270019940
:104100001A68002391424360C360037402D103B074
:104110005DF804FBFDF7B4F8000800200000000083
:1041200070B5214E82B0336801930D4604460028D5
:1041300033D0002931D0202383F31188FEF7E8FE25
:10414000FDF746FF2378013B012B02D91748FDF705
:104150009FFE65606B68A360204604F0C9F80022EA
:104160000223E2602370FDF753FFFEF7E9FE104BD8
:104170001A689A4204D0996993688A689A4208D367
:10418000002383F31188019A33689A4209D102B05F
:1041900070BD0848FDF77CFEF2E70448FDF778FEA5
:1041A000C9E7FDF76DF800BF00080020B0C70008A0
:1041B00028150020A0C70008000000000000000033
:1041C00070B51C4E82B0336801930C46054650B35F
:1041D000202383F31188FEF79BFEFDF7F9FE2B7871
:1041E000022B02D01448FDF753FEAB69AC60013CD2
:1041F000DC62FDF70DFFFEF7A3FE104B1A689A4232
:1042000004D0996993688A689A4208D3002383F39B
:104210001188019A33689A4209D102B070BD0848EA
:10422000FDF736FEF2E70448FDF732FED0E7FDF772
:1042300027F800BF00080020C0C70008281500208C
:10424000A0C70008000000000000000000000000FF
:10425000F0B5214E83B0336801930D4617460446EE
:1042600078B3037C8B422CD9202383F31188FEF78B
:104270004FFEFDF7ADFE2378022B02D01748FDF765
:1042800007FEE3680122AA401343E3603A46294649
:10429000204604F015F9FDF7BBFEFEF751FE104B6A
:1042A0001A689A4204D0996993688A689A420CD332
:1042B000002383F31188019A33689A4209D103B02D
:1042C000F0BD0648FDF7E4FDCEE70648FDF7E0FD4A
:1042D000EEE7FCF7D5FF00BF00080020D0C70008BC
:1042E00028150020A0C70008000000000000000002
:1042F00070B5204E82B0336801930D46044678B302
:10430000037C8B422CD9202383F31188FEF700FE17
:10431000FDF75EFE2378022B02D01748FDF7B8FDAB
:10432000E3680122AA4023EA0203E360294620460B
:1043300004F0DEF8FDF76CFEFEF702FE0F4B1A6884
:104340009A4204D0996993688A689A420CD30023F0
:1043500083F31188019A33689A4209D102B070BD83
:104360000548FDF795FDCEE70548FDF791FDEEE721
:10437000FCF786FF00080020F0C700082815002081
:10438000A0C70008000000000000000000000000BE
:1043900030B51E4D83B02B680193044680B32023B3
:1043A00083F31188FEF7B4FDFDF712FE2378022B8C
:1043B00002D01748FDF76CFD63689B68E3B12046A7
:1043C00004F0B6F8FDF724FEFEF7BAFD114B1A68AB
:1043D0009A4204D0996993688A689A4208D3002364
:1043E00083F31188019A2B689A420DD103B030BD36
:1043F0000948FDF74DFDF2E70548FDF749FDDEE709
:104400000348FDF745FDCAE7FCF73AFF0008002026
:1044100010C8000828150020A0C7000800000000F0
:1044200070B5294E82B0336801930D4604460028CA
:1044300032D0037C8B422FD9202383F31188FEF7DF
:1044400067FDFDF7C5FD2378022B02D01F48FDF75D
:104450001FFDE368EB40DB0726D5636803EBC5036C
:104460001B6953B32946204604F082F8FDF7D0FDBE
:10447000FEF766FD164B1A689A4204D09969936854
:104480008A689A420CD3002383F31188019A336817
:104490009A4216D102B070BD0C48FDF7F9FCCBE78B
:1044A0000C48FDF7F5FCEEE70848FDF7F1FC636802
:1044B00003EBC5031B69002BD4D10448FDF7E8FCCE
:1044C000D0E7FCF7DDFE00BF0008002030C8000880
:1044D00028150020A0C70008000000000000000010
:1044E00070B5104D82B02B6801930E46044650B152
:1044F00049B12379052B0CD00120019A2B689A42EF
:104500000ED102B070BD0848FDF7C2FC2379052B1F
:10451000F2D1A36A73604FF4007333600020ECE7BC
:10452000FCF7AEFE00080020C0C800080000000034
:104530002DE9F047DFF89C8386B002AFD8F8003051
:10454000FB600446002800F019812379022B01D07A
:10455000052B2BD103232371204602F099FA002268
:104560001146204602F00CFB07F108034FF4D57208
:104570000821204602F04CFBE0B9BB680122C3F3DE
:1045800003239342226300F0FD80204602F0B8FA34
:10459000022323710125FA68D8F800309A42284690
:1045A00040F046811037BD46BDE8F087C048FDF7B2
:1045B0006FFCCFE707F1080300223721204602F005
:1045C00027FB002840F0BE80BB68BA4A1A40002A88
:1045D00040F0B88022631146204602F0D1FA266BE3
:1045E00006F00F03022B00F0AF80B34EB34ADFF8A2
:1045F000C492012B18BF1646642504E0013DC4D0C7
:104600000A20FEF7F5F907F10803002237212046BA
:1046100002F0FEFA0028B8D1BB6813EA090FB4D142
:1046200007F1080332462921204602F0C9FA002882
:10463000ABD1BB68002BE1DA5B0003D5236B43F001
:104640001003236304F1080300220221204602F034
:10465000D7FB002899D1024604F1380303212046F4
:1046600002F0D6FA002890D104F118052B46A26B6F
:104670000921204602F0C4FB002886D13B1DA26B15
:104680000721204602F0C4FA824600287FF47DAF5D
:10469000236B03F00F03022B00F097806E467E22FF
:1046A00090B07F212846FFF7F3FA0DF108090028A2
:1046B00079D10146B546204602F00AFA236B03F091
:1046C0000F03022B00F096802846FFF721FBA06223
:1046D0003B1D4FF400721021204602F099FA054666
:1046E00000287FF452AF7B68724E33427FF44DAFA7
:1046F000236B03F00F03012B40F2B280022B7FF4F7
:1047000044AFE36A1A79012A00F0A88017D3022A7D
:1047100040F0E2806A4E1979204602F009FA07F16A
:10472000080332460621204602F072FA00287FF480
:104730002CAFBA685F4B1340002B7FF426AF0523E4
:10474000237128E7022323635E4E642505E0013DC3
:104750003FF41BAF0A20FEF74BF907F1080332467E
:104760000121204602F02CFA00287FF40EAFBB682E
:10477000002BECDA5B007FF565AF5FE74C48FDF797
:1047800087FBE2E6024607F108033721204602F0E4
:104790003FFA00287FF4F9AEBA68464B1340002B6D
:1047A0007FF4F3AE1BE7CDF800A006234022494674
:1047B000204602F055FB00284ED199F80D3013F039
:1047C000020337D11946B54675E7E36A1B687BB12A
:1047D00007F108033C4A0621204602F019FA38B9CD
:1047E000BB6834491940B1FA81F1490963E7B5461C
:1047F000002160E77E227F212846FFF749FA012841
:104800007FF662AFE36A1D68002D3FF4BEAE002361
:1048100000934FF4007208232946204602F020FB43
:1048200000287FF4B2AE2846FFF7B2FAA0624FE745
:10483000FCF726FD254B00934022062349462046DF
:1048400002F00EFB40B999F8103003F00F030F2B64
:10485000CDD0B54601212EE7B54696E61C4E5AE767
:10486000E36A197900293FF46AAF01297FF48DAE1C
:10487000204602F05DF907F10803A26B37212046BC
:1048800002F0C6F900287FF480AEBB6833427FF4A3
:104890007CAE07F1080302220621204602F0B8F997
:1048A00000287FF472AEBB6833423FF448AF6CE639
:1048B00070C8000808E0FFFD000010C00000108074
:1048C0000002B7030080FFC00001B903F1FFFF80C1
:1048D0000001B703000800200248034EFDF7D8FA94
:1048E000E36A18E750C800080000B70300000000A2
:1048F0002DE9F041194D82B02C6801940F46904685
:104900001E460446C0B1BAB1B3B12379052B02D01B
:104910001348FDF7BDFA781EA36A304498420FD9B8
:10492000636B43F0800363630120019A2B689A4212
:1049300011D102B0BDE8F0810948FDF7A9FAE4E71A
:1049400006203346207142463946204602F0E8FBF5
:1049500005232371E9E7FCF793FC00BF0008002062
:1049600090C80008000000000000000000000000E7
:104970002DE9F041194D82B02C6801940F46904604
:104980001E460446C0B1BAB1B3B12379052B02D09B
:104990001348FDF77DFA781EA36A304498420FD978
:1049A000636B43F0800363630120019A2B689A4292
:1049B00011D102B0BDE8F0810948FDF769FAE4E7DA
:1049C00007203346207142463946204602F0E8FB74
:1049D00005232371E9E7FCF753FC00BF0008002022
:1049E000A0C8000800000000000000000000000057
:1049F00070B50E4D82B02B680193044680B12679C4
:104A0000052E06D00120019A2B689A420CD102B0E3
:104A100070BD08232371204602F002FC2671F2E7E4
:104A20000348FDF735FAEAE7FCF72AFC0008002006
:104A3000B0C80008000000000000000000000000F6
:104A400070B5124D124E2B6882B0044601936B462E
:104A5000A26B0D21204602F0DBF878B9009B3342AF
:104A60000BD1C3F34323042B08D04FF0010005D32F
:104A7000072B03D8FDF7BCFFE9E70120019A2B685B
:104A80009A4201D102B070BDFCF7FAFB0008002089
:104A900008E0FFFD00000000000000000000000032
:104AA00070B52D4E82B033680193044600284CD077
:104AB000202383F31188FEF72BFAFDF789FA237977
:104AC000022B29D0052B21D104232371FDF7A0FA55
:104AD000FEF736FA214B1A689A4204D09969936816
:104AE0008A689A4229D3002383F311882046FFF76E
:104AF000A7FF0546204602F003F802232371019A1E
:104B000033689A42284624D102B070BD1448FDF79C
:104B1000BFF92379022BD7D1FDF77AFAFEF710FA05
:104B20000E4B1A689A4204D0996993688A689A422F
:104B300007D3002585F31188E1E70A48FDF7A8F9B6
:104B4000D1E70848FDF7A4F9F3E70548FDF7A0F918
:104B5000AEE7FCF795FB00BF0008002028150020F9
:104B600080C80008D0C80008000000000000000055
:104B700000B5074B83B01A680192019A1B689A42EC
:104B800004D103B05DF804EB01F062BFFCF778FBE1
:104B900000080020000000000000000000000000ED
:104BA00010B50A4B0A4A1968026082B001240191CB
:104BB00001991A680471002391424363C0E90A33E2
:104BC00001D102B010BDFCF75BFB00BF0008002064
:104BD000E0C8000800000000000000000000000025
:104BE00030B5084C83B025680195019D2468A54225
:104BF00005D10C3003B0BDE83040FEF761BDFCF7D5
:104C00003FFB00BF00080020000000000000000083
:104C100010B5094B82B01C680194019C1B689C4232
:104C200007D10C304FF0FF3302B0BDE81040FEF763
:104C300047BDFCF725FB00BF000800200000000076
:104C400030B5084C83B025680195019D2468A542C4
:104C500005D1303003B0BDE83040FEF769BEFCF747
:104C60000FFB00BF00080020000000000000000053
:104C700010B5094B82B01C680194019C1B689C42D2
:104C800007D130304FF0FF3302B0BDE81040FEF7DF
:104C90004FBEFCF7F5FA00BF00080020000000003E
:104CA00000B5084B83B01A680192019A1B689A42BA
:104CB00005D10C3003B05DF804EBFEF7B1BCFCF796
:104CC000DFFA00BF00080020000000000000000024
:104CD00000B5094B83B01A680192019A1B689A4289
:104CE00007D10C304FF0FF3103B05DF804EBFEF755
:104CF00097BCFCF7C5FA00BF0008002000000000C8
:104D000010B5084B82B01C680194019C1B689C4242
:104D100005D1303002B0BDE81040FEF771BDFCF7A0
:104D2000AFFA00BF000800200000000000000000F3
:104D300000B5094B83B01A680192019A1B689A4228
:104D400007D130304FF0FF3203B05DF804EBFEF7CF
:104D500057BDFCF795FA00BF0008002000000000D6
:104D600000B5074B83B01A680192019A1B689A42FA
:104D700004D103B05DF804EB03F04ABDFCF780FA00
:104D800000080020000000000000000000000000FB
:104D9000F0B5144D144B2F68044685B040F8043B21
:104DA0004FF0010C00940B461646606084F808C072
:104DB00004F1540104F10C0080220397FEF7E0FB9C
:104DC00033468022009404F1D40104F13000FEF750
:104DD000F7FC039A2B689A4201D105B0F0BDFCF7AD
:104DE0004FFA00BF0008002030C900080000000092
:104DF00070B51D4D82B02B6801930E46044668B312
:104E0000202383F31188FEF783F8FDF7E1F8237A76
:104E1000013B012B02D91548FDF73AF831462046EF
:104E200003F016FD02232372FDF7F2F8FEF788F86F
:104E30000F4B1A689A4204D0996993688A689A421B
:104E400008D3002383F31188019A2B689A4209D171
:104E500002B070BD0748FDF71BF8F2E70348FDF705
:104E600017F8CDE7FCF70CFA0008002010C900087D
:104E70002815002000C90008000000000000000004
:104E800070B5174D82B004462B6801930E46FDF7AE
:104E90006FF9F4B1FDF76CF9636963B1314604F160
:104EA0000C00FEF78DFB0028019A2B6808DB9A4264
:104EB00013D102B070BD04216018FEF7E9FAEDE7E6
:104EC0009A420AD1201D802102B0BDE87040FEF751
:104ED000DFBA0448FCF7DCFFDCE7FCF7D1F900BFE0
:104EE0000008002020C900080000000000000000A9
:104EF00000B5064B83B01A680192019A1B689A426A
:104F000002D103B05DF804FBFCF7BAF900080020F9
:104F100000B5074B83B01A680192019A1B689A4248
:104F200004D103B05DF804EB02F0FABFFCF7A8F976
:104F30000008002000000000000000000000000049
:104F400000B50A4B83B01A680192012202700199E0
:104F50001A6800239142C0E9013305D10C3003B037
:104F60005DF804EBFEF734B8FCF78AF9000800207E
:104F700000B5074B83B01A680192019A1B689A42E8
:104F800004D103B05DF804EB03F03ABBFCF778F909
:104F900000080020000000000000000000000000E9
:104FA00000B5074B83B01A680192019A1B689A42B8
:104FB00004D103B05DF804EB02F0AABBFCF760F982
:104FC00000080020000000000000000000000000B9
:104FD00000B50C4B83B01A6801920122027001994E
:104FE0001A6800239142C36183620362C362436211
:104FF0000363C0E9013302D103B05DF804FBFCF7A1
:105000003FF900BF00080020000000000000000081
:10501000F0B5124D83B004462B6801930E46FDF7A0
:10502000A7F8A4B1012000FA06F362899BB212EA44
:10503000030706D1134320466381314602F080FE08
:105040003846019A2B689A4205D103B0F0BD044856
:10505000FCF71EFFE6E7FCF713F900BF000800208D
:1050600050C900080000000000000000000000001F
:10507000F0B5124D83B004462B6801930E46FDF740
:1050800077F8A4B1012000FA06F322899BB212EA54
:10509000030706D1134320462381314602F070FEF8
:1050A0003846019A2B689A4205D103B0F0BD0448F6
:1050B000FCF7EEFEE6E7FCF7E3F800BF000800208F
:1050C00070C900080000000000000000000000009F
:1050D00010B50D4A82B01168019102210170019C46
:1050E000116800228C42C264C0E90222C0E9042295
:1050F000826180F8342004D102B0BDE8104002F093
:1051000037BBFCF7BDF800BF00080020000000001E
:10511000F0B5C34D83B0044600222B6880F83420DC
:1051200000F14402019302F0FBFB63689B68002BD3
:1051300036D02046984798B3E16B94F8443094F801
:105140004B0094F84A2042EA00228A422CBF0A46C9
:10515000E2631806E16800F1A680002A00F084806E
:10516000042384F834308B69A16BD96000265A601F
:105170001E709E603146204602F0EAFB202383F336
:105180001188FDF7F5FEFCF763FF31462046FFF777
:105190003FFFFCF77DFFFDF703FF86F3118816E064
:1051A00094F8443013F06006184617D000212046CA
:1051B00002F02EFE0021204602F00AFE63681B6802
:1051C00013B1052120469847062384F83430019A0C
:1051D0002B689A4240F03A8103B0F0BD94F8451034
:1051E00003F07F0242EA0122B2F5407F00F0058120
:1051F00017D9B2F5C06F00F0C68040F28A80B2F5D0
:10520000106F64D040F602418A4200F0D880B2F5B7
:10521000006FCBD104F14F0201212664C4E90E21B5
:105220008DE7022A00F0D28040F29280B2F5807FB2
:1052300060D0B2F5817FB9D194F84630002BB5D15A
:1052400094F8483013F00F0107D01F06204600F1F4
:10525000F38002F0FDFD94F844000023C4E90E330E
:1052600023640306E16829D4052384F834304B69AC
:1052700000261E70DE605E609E603146204602F0B1
:1052800007FC202383F31188FDF772FEFCF7E0FE94
:1052900031462046FFF7ECFEFCF7FAFEFDF780FEF4
:1052A00086F3118893E74AB1012384F834304B69BF
:1052B000A16BD96000265A601E70DDE7032384F8D5
:1052C00034308B6900261E70DE605E6051E794F812
:1052D000463084F84F30002B40F09E80032323702B
:1052E00063681B68002BB8D020460221984794F8C9
:1052F0004400B2E794F84630012B7FF457AFB4F87E
:105300004C30A66323F00203C4E90F66A4F84C30C6
:10531000A7E740F202339A4222D0B2F5A06F7FF4A1
:1053200045AFB4F84430B3F5A06F96D194F8463049
:1053300084F84E30204602F093FA63681B6813B17C
:10534000012120469847032394F84400237084E702
:1053500092BB04F14C0002212264C4E90E01EEE686
:1053600094F84630002B7FF421AF94F8483013F0C6
:105370000F013FF472AF1E06204662D402F028FDF2
:1053800094F8440069E794F84900616894F848305B
:105390004F6894F8462094F8471043EA00232046CB
:1053A000B84700283FF402AF4368A363016894F84C
:1053B0004430C4E90F16C2E6012A7FF4F7AE194A59
:1053C000A26302210022C4E90F12B8E694F8483023
:1053D00003F00F011B06204628D402F061FA0128D1
:1053E00028D002287FF4E2AE0F4BA36302210023F2
:1053F000C4E90F1394F84430A1E694F84630012B29
:105400007FF4D4AEB4F84C30A66343F00203C4E991
:105410000F66A4F84C3024E70423237060E700BF34
:1054200000080020D0C90008B0C9000802F058FAEE
:105430000128D6D1064BD8E702F02AFD94F84400A3
:105440000BE702F0E5FC94F8440006E7FBF718FFD1
:10545000C0C90008000000000000000000000000BB
:1054600070B5454D90F834302A6882B004460192F8
:10547000062B57D8DFE803F004255404041E070068
:105480003E48FCF705FD0021204602F0C1FC00214A
:10549000204602F09DFC63681B6813B1052120467D
:1054A0009847062384F83430019A2B689A4261D1D8
:1054B00002B070BD036C03B19847002384F8343008
:1054C000F2E790F84B0094F84A20E16BE36842EA77
:1054D0000022914205D21A8AB1FBF2F602FB16169F
:1054E00056B3032284F834209B6900261E70DE60C8
:1054F000C3E901663146204602F02AFA202383F3ED
:105500001188FDF735FDFCF7A3FD31462046FFF776
:105510007FFDFCF7BDFDFDF743FD86F31188C3E772
:10552000C368DEE7019A2B689A4223D1134802B080
:10553000BDE87040FCF7ACBC5B6931461E70DE60B4
:10554000C3E90166204602F0A3FA202383F3118801
:10555000FDF70EFDFCF77CFD31462046FFF788FD88
:10556000FCF796FDFDF71CFD86F31188022384F8F5
:10557000343099E7FBF784FE0008002090C900084A
:1055800070B5304D90F834302A6882B004460192EC
:10559000062B4AD8DFE803F00404043D1E0407008C
:1055A0002948FCF775FC0021204602F031FC00215F
:1055B000204602F00DFC63681B6813B105212046EC
:1055C0009847062384F83430019A2B689A4236D1E2
:1055D00002B070BDC368052280F834205B690026E4
:1055E0001E70DE60C3E90166314602F051FA2023E5
:1055F00083F31188FDF7BCFCFCF72AFD31462046F9
:10560000FFF736FDFCF744FDFDF7CAFC86F3118871
:10561000DAE7C3689B699B68002BD5D1036C03B1A3
:105620009847002384F83430CEE7019A2B689A42D9
:1056300005D1054802B0BDE87040FCF729BCFBF776
:105640001FFE00BF00080020A0C9000800000000E5
:1056500030B54309104D83B09B002A68019200F1D8
:10566000604403F1604303F561430122090104F53D
:10567000614400F01F0002FA00F0C9B284F8001380
:10568000C3F880011860019A2B689A4201D103B0D7
:1056900030BDFBF7F5FD00BF000800200000000052
:1056A00070B50D4E82B0336801930C2804460D4648
:1056B00002D90A48FCF7ECFB04F1604000F56D40AC
:1056C0002D01EDB20576019A33689A4201D102B0FC
:1056D00070BDFBF7D5FD00BF00080020E0C9000841
:1056E00010B50F4C82B023680193FDF7D9FBFCF78E
:1056F000EFFC0C4B0C4A196801F03D0199601368EE
:105700000BB150689847FCF70BFD019A23689A4249
:1057100004D102B0BDE81040FEF742BAFBF7B0FD7D
:105720000008002000600240C81B002000000000AC
:1057300030B5104C83B023680193FDF7B1FBFCF743
:10574000C7FC0D4B0D4819688268890901F03D01BD
:105750008D019D600AB1C0689047FCF7E1FC019A99
:1057600023689A4204D103B0BDE83040FEF718BA6E
:10577000FBF786FD0008002000600240C81B0020E7
:1057800030B5104C83B023680193FDF789FBFCF71B
:105790009FFC0D4B0D4819680269090C01F03D0191
:1057A0000D049D600AB140699047FCF7B9FC019A6D
:1057B00023689A4204D103B0BDE83040FEF7F0B947
:1057C000FBF75EFD0008002000600240C81B0020BF
:1057D00030B5104C83B023680193FDF761FBFCF7F3
:1057E00077FC0D4B0D4819688269890D01F03D0168
:1057F0008D059D600AB1C0699047FCF791FC019A44
:1058000023689A4204D103B0BDE83040FEF7C8B91E
:10581000FBF736FD0008002000600240C81B002096
:1058200010B50F4C82B023680193FDF739FBFCF7EC
:105830004FFC0C4B0C485968026A01F03D01D960DD
:105840000AB1406A9047FCF76BFC019A23689A42C0
:1058500004D102B0BDE81040FEF7A2B9FBF710FD7D
:105860000008002000600240C81B0020000000006B
:1058700030B5104C83B023680193FDF711FBFCF7A2
:1058800027FC0D4B0D485968826A890901F03D01DA
:105890008D01DD600AB1C06A9047FCF741FC019AB6
:1058A00023689A4204D103B0BDE83040FEF778B9CE
:1058B000FBF7E6FC0008002000600240C81B002047
:1058C00030B5104C83B023680193FDF7E9FAFCF77B
:1058D000FFFB0D4B0D485968026B090C01F03D01AF
:1058E0000D04DD600AB1406B9047FCF719FC019A8A
:1058F00023689A4204D103B0BDE83040FEF750B9A6
:10590000FBF7BEFC0008002000600240C81B00201E
:1059100030B5104C83B023680193FDF7C1FAFCF752
:10592000D7FB0D4B0D485968826B890D01F03D0185
:105930008D05DD600AB1C06B9047FCF7F1FB019A61
:1059400023689A4204D103B0BDE83040FEF728B97D
:10595000FBF796FC0008002000600240C81B0020F6
:1059600010B50F4C82B023680193FDF799FAFCF74C
:10597000AFFB0C4B0C481968026C01F03D019960BB
:105980000AB1406C9047FCF7CBFB019A23689A421E
:1059900004D102B0BDE81040FEF702B9FBF770FC7D
:1059A0000008002000640240C81B00200000000026
:1059B00030B5104C83B023680193FDF771FAFCF702
:1059C00087FB0D4B0D481968826C890901F03D0178
:1059D0008D019D600AB1C06C9047FCF7A1FB019A54
:1059E00023689A4204D103B0BDE83040FEF7D8B82E
:1059F000FBF746FC0008002000640240C81B0020A2
:105A000030B5104C83B023680193FDF749FAFCF7D9
:105A10005FFB0D4B0D481968026D090C01F03D014B
:105A20000D049D600AB1406D9047FCF779FB019A27
:105A300023689A4204D103B0BDE83040FEF7B0B805
:105A4000FBF71EFC0008002000640240C81B002079
:105A500030B5104C83B023680193FDF721FAFCF7B1
:105A600037FB0D4B0D481968826D890D01F03D0122
:105A70008D059D600AB1C06D9047FCF751FB019AFE
:105A800023689A4204D103B0BDE83040FEF788B8DD
:105A9000FBF7F6FB0008002000640240C81B002052
:105AA00010B50F4C82B023680193FDF7F9F9FCF7AC
:105AB0000FFB0C4B0C485968026E01F03D01D96098
:105AC0000AB1406E9047FCF72BFB019A23689A427B
:105AD00004D102B0BDE81040FEF762B8FBF7D0FB7E
